:020000040000FA
:100000000C9430020C9458020C9458020C94580230
:100010000C9458020C9458020C9458020C945802F8
:100020000C9458020C9458020C9458020C945802E8
:100030000C9458020C9458020C9458020C945802D8
:100040000C94D4220C9458020C9444230C941E2338
:100050000C9458020C9458020C9458020C945802B8
:100060000C9476230C94580200407A10F35A00A0A6
:10007000724E18090010A5D4E80000E87648170071
:1000800000E40B54020000CA9A3B000000E1F505B1
:10009000000080969800000040420F000000A086FB
:1000A00001000000102700000000E803000000002D
:1000B0006400000000000A000000000001000000D1
:1000C00000002C76D888DC674F0823DFC1DFAE59EB
:1000D000E1B1B796E5E3E453C63AE651997696E87E
:1000E000E6C28426EB898C9B62ED407C6FFCEFBC02
:1000F0009C9F40F2BAA56FA5F490055A2AF75C932D
:100100006B6CF9676DC11BFCE0E40D47FEF520E662
:10011000B500D0ED902E0300943577050080841E45
:10012000080000204E0A000000C80C333333330FA0
:10013000986E12831141EF8D2114893BE65516CF3D
:10014000FEE6DB18D1844B381BF77C1D901DA4BB49
:10015000E424203284725E228100C9F124ECA1E5FE
:100160003D275D2000626C6E6B696E66007665727D
:1001700000312E312E3000682D62656174003435F7
:1001800000627566662D696E0032353600646576EC
:100190000041726475696E6F20556E6F00637075F3
:1001A0000041546D6567613332385000636F6E00F3
:1001B00057353130300066772D7479706500544DB5
:1001C000504C634F473349724A6A006275696C64E8
:1001D0000044656320323120323032322031373AE8
:1001E00031333A33380000000D0A202020205F5FB1
:1001F0005F20205F5F202020202020202020205F03
:100200005F0D0A2020202F205F20292F202F5F2024
:100210005F5F5F5F5F20202F202F5F5F0D0A202030
:100220002F205F20202F202F202F2F202F205F20F6
:100230005C2F2020275F2F0D0A202F5F5F5F5F2F2D
:100240005F2F5C5F2C202F5F2F2F5F2F5F2F5C5F56
:100250005C0D0A20202020202020202F5F5F5F2FB0
:100260002076312E312E30206F6E204172647569F8
:100270006E6F20556E6F0D0A0D0A20235374616E48
:100280006457697468556B7261696E65202020201F
:1002900068747470733A2F2F6269742E6C792F739F
:1002A0007775610D0A0D0A0049503A0044484350E1
:1002B000204661696C6564210047657474696E67E6
:1002C0002049502E2E2E0000000000240027002A76
:1002D0000000000000250028002B00436F6E6E65B3
:1002E0006374696E6720746F2000436F6E6E656380
:1002F00074696E6720746F20006D73292E0052653B
:10030000616479202870696E673A2000000000005F
:100310002300260029000404040404040404020247
:100320000202020203030303030301020408102074
:10033000408001020408102001020408102000007F
:100340000008000201000003040700000000000094
:1003500000005B025B025B025B025B025B025B0212
:100360005B025B025B025B025B025B025B025B02A5
:100370005B025B025B025B025B025B025B025B0295
:100380005B025B025B025B025B025B025B025B0285
:100390005B026B0B5A02450B5A02230BFB0A5A02F3
:1003A0005A025A025A025A025A025A025A025A026D
:1003B0005A025A025A025A025A025A025A025A025D
:1003C0005A025A025A025A025A025A025A025A024D
:1003D0005A02496E76616C696420485720636D64E7
:1003E0003A20005365727665723A2000526564695E
:1003F00072656374696E6720746F20005265616472
:1004000079005061636B657420746F6F2062696757
:100410003A2000436F6E6E656374206661696C6597
:10042000642E20636F64653A2000496E76616C69C2
:1004300064206175746820746F6B656E004C6F6723
:10044000696E2074696D656F7574004865617274BA
:10045000626561742074696D656F75740000342580
:1004600011241FBECFEFD8E0DEBFCDBF13E0A0E068
:10047000B1E0E6EBFCE602C005900D92AC30B107AE
:10048000D9F726E0ACE0B3E001C01D92A13FB2076E
:10049000E1F712E0C0E3D2E004C02197FE010E9420
:1004A0005A35CF32D107C9F70E941F260C9459360E
:1004B0000C940000089508958CBD9DBD089520E31F
:1004C000FC0120833296862F82958F706F706A3080
:1004D00030F4605D6293682F8111F5CF0895695CF7
:1004E000F9CFFC01818D928D0895833081F028F43D
:1004F000813099F08230A9F008958730A9F08830D2
:10050000C9F08430B1F4809180008F7D03C0809168
:1005100080008F7780938000089584B58F7784BDA5
:10052000089584B58F7DFBCF8091B0008F77809345
:10053000B00008958091B0008F7DF9CF1F93CF93C5
:10054000DF93282F30E0F901E25CFC4F8491F90140
:10055000E65DFC4FD491F901EA5EFC4FC491CC23D7
:10056000A9F0162F81110E947502EC2FF0E0EE0F1A
:10057000FF1FEF52FD4FA591B4918FB7F894EC9106
:10058000111108C0D095DE23DC938FBFDF91CF918E
:100590001F910895DE2BF8CFCF93DF9390E0FC01FD
:1005A000E65DFC4F24918A5E9C4FFC018491882378
:1005B000C9F090E0880F991FFC01E953FD4FA59108
:1005C000B491FC01EF52FD4FC591D49161110DC062
:1005D0009FB7F8948C91209582238C93888128234F
:1005E00028839FBFDF91CF910895623051F49FB768
:1005F000F8943C91822F809583238C93E8812E2B55
:10060000EFCF8FB7F894EC912E2B2C938FBFEACFBE
:100610001F93CF93DF93182FEB0161E00E94CC0270
:10062000209739F460E0812FDF91CF911F910C94D6
:100630009E02CF3FD10511F461E0F5CFE12FF0E04C
:10064000E25CFC4FE491E33031F140F4E130B1F091
:10065000E230E1F0C038D1057CF7E4CFE73029F192
:10066000E83059F1E430B1F78091800080628093E6
:100670008000D0938B00C0938A0004C084B580684A
:1006800084BDC7BDDF91CF911F91089584B580626D
:1006900084BDC8BDF7CF80918000806880938000C2
:1006A000D0938900C0938800EDCF8091B00080681E
:1006B0008093B000C093B300E5CF8091B00080621A
:1006C0008093B000C093B400DDCF8E3008F08E5020
:1006D0008770806480937C0080917A00806480932E
:1006E0007A0080917A0086FDFCCF8091780090910D
:1006F000790008953FB7F89480913E0490913F04AB
:10070000A0914004B091410426B5A89B05C02F3F9D
:1007100019F00196A11DB11D3FBFBA2FA92F982F27
:100720008827BC01CD01620F711D811D911D42E022
:10073000660F771F881F991F4A95D1F708958F92EA
:100740009F92AF92BF92CF92DF92EF92FF926B0196
:100750007C010E947A034B015C01C114D104E104C5
:10076000F104B9F00E947A03681979098A099B0992
:10077000683E73408105910580F321E0C21AD108DB
:10078000E108F10888EE880E83E0981EA11CB11CD8
:10079000E4CFFF90EF90DF90CF90BF90AF909F900D
:1007A0008F9008952FB7F89460913A0470913B04AC
:1007B00080913C0490913D042FBF089508950895C1
:1007C00008954F925F926F927F92AF92BF92CF92B5
:1007D000DF92EF92FF920F931F93CF93DF93EC0181
:1007E0006B017B01E40EF51E8B015801AC18BD08AE
:1007F0000E151F0511F10E94D203688779878A8739
:100800009B87E881F9810284F385E02DCE0109956B
:1008100097FF23C00E94D203488459846A847B8452
:1008200064197509860997094C805D806E807F8008
:10083000641575058605970520F3C501DF91CF91F5
:100840001F910F91FF90EF90DF90CF90BF90AF90EE
:100850007F906F905F904F900895F80181938F0182
:10086000C4CFDC01ED91FC910190F081E02D099461
:10087000AF92BF92CF92DF92EF92FF920F931F93AE
:10088000CF93DF936C017B018B01040F151FEB01EC
:100890005E01AE18BF08C017D10759F06991D601A3
:1008A000ED91FC910190F081E02DC6010995892B15
:1008B00079F7C501DF91CF911F910F91FF90EF90D4
:1008C000DF90CF90BF90AF900895FC01538D448D81
:1008D000252F30E0842F90E0821B930B541710F0EB
:1008E000CF96089501970895FC01918D828D9817F8
:1008F00061F0A28DAE0FBF2FB11D5D968C91928DD0
:100900009F5F9F73928F90E008958FEF9FEF089500
:10091000FC01918D828D981731F0828DE80FF11DC9
:10092000858D90E008958FEF9FEF0895FC01918DE4
:10093000228D892F90E0805C9F4F821B91098F73DD
:10094000992708958FE594E00E94960421E0892B71
:1009500009F420E0822F089580E090E0892B29F0AF
:100960000E94A20481110C9400000895FC01A48D42
:10097000A80FB92FB11DA35ABF4F2C91848D90E0C1
:1009800001968F739927848FA689B7892C93A089A4
:10099000B1898C91837080648C93938D848D98132E
:1009A00006C00288F389E02D80818F7D80830895C1
:1009B000EF92FF920F931F93CF93DF93EC0181E0AF
:1009C000888F9B8D8C8D98131AC0E889F989808156
:1009D00085FF15C09FB7F894EE89FF896083E88989
:1009E000F98980818370806480839FBF81E090E07B
:1009F000DF91CF911F910F91FF90EF900895F62E08
:100A00000B8D10E00F5F1F4F0F731127E02E8C8DA1
:100A10008E110CC00FB607FCFACFE889F9898081E6
:100A200085FFF5CFCE010E94B604F1CFEB8DEC0F20
:100A3000FD2FF11DE35AFF4FF0829FB7F8940B8F03
:100A4000EA89FB8980818062CFCF0F931F93CF9378
:100A5000DF938C01D0E0C0E0F801EC0FFD1F649142
:100A6000662341F08FE594E00E94D804892B11F0B1
:100A70002196F2CFCE01DF91CF911F910F91089572
:100A8000682F8FE594E00C94D804CF93DF93EC01AA
:100A9000888D8823B9F0AA89BB89E889F9898C9166
:100AA00085FD03C0808186FD0DC00FB607FCF7CF22
:100AB0008C9185FFF2CF808185FFEDCFCE010E9422
:100AC000B604E9CFDF91CF91089520914E03260F10
:100AD0003327331F21323105ECF420919703FC01B9
:100AE00090E080E0243069F082E00895A0914E0308
:100AF0002191AC01425D5C4FA40FB52FB11D2C9329
:100B00000196861798F380914E03680F60934E0309
:100B100080E0089581E008951092970381E080932A
:100B200096031092710361E082E10E949E0261E0EF
:100B300083E10E949E02E9EBF0E080818E7F80835A
:100B400080818D7F808388E48093B80085E48093E2
:100B5000BC000895CF93DF9391E090932D038823F9
:100B6000B9F0C091B800D091BA008091BC008A7BE6
:100B70008093BC0060E082E10E949E0260E083E11D
:100B80000E949E020E948C05D093BA00C093B800C8
:100B9000DF91CF910895E091C6038091C503E817D6
:100BA00030F4F0E0E35FFC4F808190E008958FEF38
:100BB0009FEF08959091C6038091C5032FEF3FEFFB
:100BC000981748F4E92FF0E0E35FFC4F208130E014
:100BD0009F5F9093C603C90108958091C5039091CA
:100BE000C603891B990B0895CF92DF92EF92FF9273
:100BF0000F931F93CF93DF937C01CB018A01209148
:100C00009D03222389F0EB016B01C40ED51ECC1588
:100C1000DD0569F06991D701ED91FC910190F081BA
:100C2000E02DC7010995F3CF642F0E946505C80127
:100C3000DF91CF911F910F91FF90EF90DF90CF90B8
:100C40000895CF93DF931F92CDB7DEB769832091CC
:100C50009D032223F9F02091C303203258F021E0B4
:100C600030E0FC013383228390E080E00F90DF913D
:100C7000CF9108958091C403E82FF0E0E256FC4F35
:100C8000998190838F5F8093C4038093C30381E035
:100C900090E0ECCF61E0CE0101960E946505F7CFB0
:100CA000CF92DF92EF92FF920F931F93CF93DF9338
:100CB000FC01C48121E020939D03C093BE031092E8
:100CC000C4031092C3038385682B8CEF94E00E94C9
:100CD0002106D091C303D13208F092C00E947A035A
:100CE0006B017C0180919703811165C082E0809344
:100CF000970381E0809396038FEF80939503109282
:100D00009403D0939303AEE9B3E0E3E7F3E080E02C
:100D1000D81385C01092720380917203CC0FC82B38
:100D2000C093720380917103813009F07CC01092EE
:100D300071030E947A036B017C018091720380939E
:100D4000BB008091990390919A03A0919B03B0916D
:100D50009C03892B8A2B8B2B99F00E947A0300919C
:100D6000990310919A0320919B0330919C036C1975
:100D70007D098E099F090617170728073907E0F133
:100D80008091BC0083FDD9CF85EC8093BC000E948C
:100D90007A036B017C0180919703823009F445C08E
:100DA000809195038F3F61F180919503803241F1ED
:100DB0008091950325C08091990390919A03A09109
:100DC0009B03B0919C03892B8A2B8B2B09F48ACF30
:100DD0000E947A030091990310919A0320919B033A
:100DE00030919C036C197D098E099F09061717071E
:100DF0002807390708F076CF809198030E94AA054A
:100E00001092C4031092C30310929D03DF91CF91FF
:100E10001F910F91FF90EF90DF90CF9008959D91DB
:100E200091938F5F75CF85EEB0CF809199039091AC
:100E30009A03A0919B03B0919C03892B8A2B8B2B47
:100E400009F4A9CF0E947A030091990310919A03A3
:100E500020919B0330919C036C197D098E099F0999
:100E6000061717072807390708F095CFC5CFFC01EB
:100E700020812EBD9B012150310941F051810DB4DB
:100E800007FEFDCF4EB55EBD4193F5CF61507109B0
:100E9000860F971F0DB407FEFDCF2EB5FC012083F2
:100EA0000895E091C803F091C90380819091C70330
:100EB000892B80830895E091C803F091C903908144
:100EC0008091C70380958923808308958EBD00009B
:100ED0000DB407FEFDCF8EB50895AF92BF92CF92AD
:100EE000DF92EF92FF920F931F93CF93DF93CDB7D3
:100EF000DEB728970FB6F894DEBF0FBECDBF8C01CA
:100F00007B016A0180915E048333E1F45801A40EF1
:100F1000B51EA016B10609F46FC00E945B0780EFF2
:100F20000E946607812F0E946607802F0E94660735
:100F30000F5F1F4FF70181917F010E9466070E949A
:100F40005107E7CF5B01A40EB51E8433C1F40E94A4
:100F50005B0719830A838D2D80688B83CC8264E0C4
:100F600070E0CE0101960E943707AE14BF0409F469
:100F700041C0F70181917F010E946607F6CF0E9470
:100F80005B070F3F110509F028F419820A8384E0FA
:100F90008B830CC017FD17C019820A8333E01695A6
:100FA00007953A95E1F7007E0C600B8386E0C81642
:100FB000D104A0F5F701DE011496EA15FB0599F0BE
:100FC00081918D93FACFC80126E0969587952A9551
:100FD000E1F7807E19830A830115104C10F48461B7
:100FE000D7CF8C61D5CFB6016D5F7F4FCE01019613
:100FF0000E9437070E945107C60128960FB6F89441
:10100000DEBF0FBECDBFDF91CF911F910F91FF903B
:10101000EF90DF90CF90BF90AF90089563E070E0C5
:10102000CE0101960E943707F70181917F010E944E
:101030006607AE14BF04C1F7DDCFCF93DF931F92D5
:10104000CDB7DEB7898341E050E0BE016F5F7F4FCF
:1010500090E080E00E946D070F90DF91CF9108959E
:1010600090E020915E04233339F40C96982F990F69
:10107000990F990F80E008954896F8CFDA01E09132
:10108000CB03F0E0FE2FEE27E60FF71F90E0982F3E
:101090008827A901BD018E0F9F1F0C946D07CF9368
:1010A000DF9300D0CDB7DEB779836A8322E030E0EA
:1010B000AE014F5F5F4F60E170E00E943E080F900D
:1010C0000F90DF91CF910895CF93DF9300D0CDB7EC
:1010D000DEB779836A8322E030E0AE014F5F5F4F75
:1010E00064E070E00E943E080F900F90DF91CF9176
:1010F0000895CF93DF931F92CDB7DEB72091CB0336
:1011000030E0322F2227260F371F90E0982F8827B4
:10111000498341E050E0BE016F5F7F4F820F931F14
:101120000E946D070F90DF91CF910895CF93DF93C9
:101130001F92CDB7DEB76983DC01ED91FC9102808F
:10114000F381E02D41E050E0BE016F5F7F4F0995D4
:101150000F90DF91CF910895FC019485FB01848568
:10116000981303C081E0943008F080E00895CF9395
:10117000DF931F92CDB7DEB76983DC01ED91FC915F
:101180000280F381E02D41E050E0BE016F5F7F4FB0
:1011900009950F90DF91CF9108950895FF920F93D5
:1011A0001F93CF93DF93EB01FC01178A168A2A81E4
:1011B000211109C02B81211106C02C81211103C0EE
:1011C0002D81222301F141155105E9F08A01FC012D
:1011D000F08C80E591E00E945C02AE014E5F5F4FB3
:1011E00024E030E06CE070E08F2D0E943E08B801F2
:1011F0008F2D0E944F0881E090E0DF91CF911F91E9
:101200000F91FF90089580E0F7CFFC0184859585CC
:101210000895FC018489958908952BEC31E0FC0147
:1012200031832083FB014089518962897389FC01E4
:1012300042835383648375830895DC01ED91FC91AF
:10124000048CF58DE02D099490E080E008958EE007
:101250000E946503BC01990F880B990B0E941533FE
:1012600020E030E040EA50E40E94743320E030E0B7
:1012700040E85AE30E9474332AE037ED43E25CE32E
:101280000E94CC34089590E080E00E94400590E0F8
:1012900080E00C94400590E080E00E94400581E0F1
:1012A00090E00C944005CF9380E390E00E944005CD
:1012B0008FE594E00E949604892BD1F38FE594E0AA
:1012C0000E947404C82F80930C038FE594E00E9461
:1012D0009604892BD1F38FE594E00E94740420E0FA
:1012E0003C2FA901482BCA01CF910895FC01948598
:1012F000992369F080819181DC01ED91FC91068850
:10130000F789E02D099591E0811101C090E0892FC6
:101310000895DC011C961C921C978D919C91DC0118
:10132000ED91FC910488F589E02D0994FC01768704
:1013300065870895DC01ED91FC9102A0F3A1E02DF9
:10134000099591E089270895862F089581E08627E1
:10135000089521E0FC018485843008F020E0822F8C
:10136000089508950F931F93CF938C01C62F0E9469
:1013700050066C2F6460C8010E9450066C2F6B7F72
:10138000C8010E94500683EC90E00197F1F7CF91DD
:101390001F910F9108950F931F93CF93DF938C01AB
:1013A000D62FC42F607F642B0E94B20980E1D89FA2
:1013B000B00111246C2BC801DF91CF911F910F91C7
:1013C0000C94B209CF93DF93CDB7DEB728970FB651
:1013D000F894DEBF0FBECDBF98E0EDE2F1E0DE0194
:1013E000119601900D929A95E1F790914605961706
:1013F00008F46FEF262F30E0220F331F41E050E05A
:101400004C0F5D1F240F351FF9016081680F606864
:1014100040E08EE395E028960FB6F894DEBF0FBE4D
:10142000CDBFDF91CF910C94CB0941E00E94CB0955
:1014300081E090E00895FB0101900020E9F73197E9
:10144000AF01461B570BDC01ED91FC910280F3814B
:10145000E02D0994CF93DF930E942505EC016DECFC
:1014600071E08FE594E00E941B0A8C0F9D1FDF91B5
:10147000CF9108958F929F92AF92BF92EF92FF9279
:101480000F931F93CF93DF93CDB7DEB7A1970FB61E
:10149000F894DEBF0FBECDBF7C01FA01CB0119A2CB
:1014A000223008F42AE08E010F5D1F4F822E912C0E
:1014B000B12CA12CBF01A50194010E949B34F9011C
:1014C000CA016A300CF5605DD8016E938D01232B43
:1014D000242B252B79F790E080E0109721F0BD01B7
:1014E000C7010E941B0AA1960FB6F894DEBF0FBE7B
:1014F000CDBFDF91CF911F910F91FF90EF90BF90E3
:10150000AF909F908F900895695CDECF462F50E09A
:1015100070E060E02AE00C943A0A8F929F92AF92BA
:10152000BF92CF92DF92EF92FF920F931F93CF93D0
:10153000DF937C018B014C0182E0880E911C5701E6
:10154000E5E0AE0EB11CD0E0C0E0F40161914F01C6
:10155000C8010E94860A6C016EE2C8010E94310433
:101560008C0D9D1DC80FD91F8A149B0471F7F701BC
:101570006581C8010E94860A8C0F9D1FDF91CF9163
:101580001F910F91FF90EF90DF90CF90BF90AF90A1
:101590009F908F900895CF93DF93AC0170E060E04F
:1015A0002AE08FE594E00E943A0AEC016DEC71E0CC
:1015B0008FE594E00E941B0A8C0F9D1FDF91CF9155
:1015C00008956BE58FE594E00E9431040E94D203F8
:1015D000AB01BC012AE08FE594E00E943A0A82E662
:1015E00091E00C9425056115710511F00C941B0A0E
:1015F00090E080E00895FB01808191810E943C3061
:10160000892B91F081E090E00E94400581E090E01C
:101610000E94400561E087E00E94E20960ED71E010
:101620008EE395E00C94F30A81E090E00E9440057F
:1016300090E080E00E94400561E087E00E94E209BE
:101640006AED71E0EDCFFB01808191810E943C3019
:1016500021E0009709F420E020933604892B61F003
:101660000E944B0961E087E00E94E20964EE71E0AC
:101670008EE395E00C94F30A0E94430961E087E051
:101680000E94E2096EEE71E0F3CFFB01808191814F
:101690000E943C3021E0009709F420E020933504BB
:1016A000892B71F061E085E00E949E0260E087E096
:1016B0000E94E20968EF71E08EE395E00C94F30A72
:1016C00060E085E00E949E0260E087E00E94E209FF
:1016D00062E072E0F1CFFB01808191810E943C3099
:1016E000892B71F061E084E00E949E0260E087E057
:1016F0000E94E2096CE072E08EE395E00C94F30A3C
:1017000060E084E00E949E0260E087E00E94E209BF
:1017100067E172E0F1CF0C940F2FAF92BF92CF929E
:10172000DF92EF92FF920F931F93CF93DF9300D03E
:1017300000D0CDB7DEB78C016B017A0180915E04D9
:101740008333E9F45B016801C40ED51EC016D106CF
:10175000A9F10E945B078FE00E946607812F0E941B
:101760006607802F0E9466070F5F1F4F80E00E9470
:101770006607F50181935F010E945107E7CF84332B
:1017800069F50E945B0719830A838F2D8F778B83FE
:10179000EC8264E070E0CE0101960E943707A70159
:1017A00070E060E0C6010E943336E114F10421F0DC
:1017B000B701C6010E9437070E945107C7010F9069
:1017C0000F900F900F90DF91CF911F910F91FF908D
:1017D000EF90DF90CF90BF90AF9008950E945B078D
:1017E0000F3F110509F030F419820A831B8263E070
:1017F00070E0D1CF17FD0BC019820A8333E0169534
:1018000007953A95E1F7007E08600B83F0CFC80199
:1018100026E0969587952A95E1F7807E19830A83BD
:101820000115104C18F480618B83E1CF8861FCCFE7
:10183000CF93DF931F92CDB7DEB72091CB0330E07B
:10184000322F2227260F371F90E0982F882741E05C
:1018500050E0BE016F5F7F4F820F931F0E948D0B80
:1018600089810F90DF91CF910895CF93C82F462F94
:1018700061E070E00E94790861E070E08C2F0E94C6
:10188000180C8111F9CFCF910895CF93C82F80E51F
:1018900091E00E945C0268E070E08C2FCF910C9484
:1018A000350CCF93C82F80E591E00E945C0260E187
:1018B00070E08C2FCF910C94350CCF93DF93EC011B
:1018C000888D843020F40E94510C84E0888FDF9151
:1018D000CF910895CF93C82F80E591E00E945C02DC
:1018E00063E070E08C2FCF910C94180CCF93DF93B2
:1018F000EC018C858430D0F40E946A0C843189F02C
:10190000882379F0883169F021E08C3159F4E8813D
:10191000F9810084F185E02DCE01099521E0892B24
:1019200009F420E0822FDF91CF91089580E0FBCF72
:10193000CF92DF92EF92FF92CF93DF93EC018C85F1
:10194000843068F40E94450C0E94D2036B017C0134
:101950008C850E946A0C811109C084E08C87DF911C
:10196000CF91FF90EF90DF90CF90089561E070E00D
:1019700080E090E00E949F030E94D203AB01BC0173
:101980004C195D096E097F098D859E85B0E0A0E048
:10199000481759076A077B07D8F28C850E94510CBB
:1019A000DCCFCF93FC01C08D80E591E00E945C020A
:1019B00060E270E08C2F0E94350C62E070E08C2FAA
:1019C0000E94180C84FD16C062E070E08C2F0E940B
:1019D000180C83FF0AC048E162E070E08C2F0E947F
:1019E000790880E090E0CF91089580E591E00E9431
:1019F0005C02E3CF40E162E070E08C2F0E94790846
:101A000081E0F0CFCF93DF931F92CDB7DEB741E0F7
:101A100050E0BE016F5F7F4F90E080E00E948D0B31
:101A200089810F90DF91CF910895CF93DF93C4E127
:101A3000D0E00E94020D882361F061E070E080E058
:101A400090E00E949F032197A1F780E0DF91CF9162
:101A5000089581E0FBCF1F93CF93DF931F92CDB703
:101A6000DEB7182F80E591E00E945C02812F0E9472
:101A7000300827E0129FF0011124EE5BFB4F22811A
:101A80003381377041E050E0BE016F5F7F4F820FBE
:101A9000931F0E948D0B89810F90DF91CF911F9131
:101AA0000895FC01808D843040F4218D328D232BEC
:101AB00021F00E942B0D90E008958FEF9FEF089585
:101AC000CF93DF93FC012485243028F08FEF9FEF24
:101AD000DF91CF910895EC010190F081E02D008419
:101AE000F185E02D0995892B89F38C850E942B0DBA
:101AF00090E0EECFDA01E091CB03F0E0FE2FEE278D
:101B0000E60FF71F90E0982F8827A901BD018E0FDF
:101B10009F1F0C948D0B8F929F92AF92BF92CF928A
:101B2000DF92EF92FF921F93CF93DF93CDB7DEB793
:101B30002C970FB6F894DEBF0FBECDBF20915E0488
:101B400014E0222339F16B017C0180E591E00E94D1
:101B50005C025E0127E0A20EB11C450110E063E0CB
:101B600070E0812F0E94180CF40181934F018823AB
:101B700049F11F5F143099F710E0F50181915F0181
:101B80008D31D9F08831C9F08A518230B0F01F5FB1
:101B9000143099F7812F2C960FB6F894DEBF0FBE44
:101BA000CDBFDF91CF911F91FF90EF90DF90CF904D
:101BB000BF90AF909F908F90089560E170E0812F6B
:101BC0000E94350CA12EB12C83EE93E00197F1F722
:101BD00042E870E060E0812F0E9479084FEF62E0F8
:101BE00070E0812F0E947908B601C114D10491F4EC
:101BF000809121019091220101968115F0EC9F07BF
:101C000008F45CC09093220180932101609121012E
:101C100070912201812F0E94640886E0E5E3F1E0E3
:101C2000DE01119601900D928A95E1F7F70183810B
:101C30008F778C8384818D8385818E83A7014E5F0E
:101C40005F4F24E030E06CE070E0812F0E943E089E
:101C5000B601812F0E944F0826E030E0AE014F5FB1
:101C60005F4F66E070E0812F0E943E0861E070E007
:101C7000812F0E94350C27E02A9DC0012B9D900DDD
:101C800011249C012E5B3B4F7901F90111821082D6
:101C900022E030E0AE01455F5F4F68E270E0812FE7
:101CA0000E947A0D8B859C85982789279827F701B4
:101CB000938382831682158214826CCF80E090EC2D
:101CC000A1CFCF92DF92EF92FF920F931F93CF930A
:101CD000DF9300D000D000D0CDB7DEB78C016B0110
:101CE0007A01FC01808D843010F40E94510C8BEC41
:101CF00091E09A838983F60182819381A481B581E1
:101D00008B839C83AD83BE83B701CE0101960E9475
:101D10008B0DF801808F8430A0F4F586E486128E56
:101D2000118E81E026960FB6F894DEBF0FBECDBFB0
:101D3000DF91CF911F910F91FF90EF90DF90CF90A7
:101D4000089580E0EFCFAF92BF92CF92DF92EF92F3
:101D5000FF920F931F93CF93DF9300D000D000D05A
:101D6000CDB7DEB7082F6B0180E591E00E945C02E1
:101D70009E012F5F3F4F7901590110E063E070E051
:101D8000812F0E94180CF50181935F01882341F196
:101D90001F5F143099F710E0F70181917F018D31B9
:101DA000D1F08831C1F08A518230A8F01F5F143021
:101DB00099F7812F26960FB6F894DEBF0FBECDBFE0
:101DC000DF91CF911F910F91FF90EF90DF90CF9017
:101DD000BF90AF90089560E170E0812F0E94350CB4
:101DE000E12EF12C83EE93E00197F1F7402F70E0A4
:101DF00060E0812F0E9479084FEF62E070E0812F50
:101E00000E947908B601CD2889F480912101909132
:101E1000220101968115F0EC9F0798F19093220121
:101E2000809321016091210170912201812F0E94F4
:101E3000640861E070E0812F0E94350C27E02E9D40
:101E4000C0012F9D900D11249C012E5B3B4F790109
:101E5000F9011182108222E030E0AE014B5F5F4F4A
:101E600068E270E0812F0E947A0D8D819E81982713
:101E700089279827F701938382831682158214821B
:101E800098CF80E090ECCACFCF92DF92EF92FF9292
:101E90001F93CF93DF93EC017B016A018C85843023
:101EA00048F40E946A0C882319F08C850E94450C26
:101EB00084E08C87F70182819381A481B5810097AA
:101EC000A105B10551F490E080E0DF91CF911F9121
:101ED000FF90EF90DF90CF9008958F3F9F4FAF4FCF
:101EE000BF4F89F380915E04811103C084E08C8729
:101EF000EACF70E060E081E20E94A30E182F8C8789
:101F0000843008F780E591E00E945C02A7014E5FF3
:101F10005F4F24E030E06CE070E0812F0E943E08CB
:101F2000B601812F0E944F0864E070E0812F0E946B
:101F3000350C0E94D2036B017C018C850E946A0CD7
:101F4000873109F18C31F9F0882309F4BCCF0E9464
:101F5000D203AB01BC014C195D096E097F098D8567
:101F60009E85B0E0A0E084179507A607B70738F074
:101F700061E070E080E090E00E949F03DECF8C85FE
:101F80000E94510CB3CF81E090E09FCF0F931F933D
:101F9000CF93DF93EC018B01888D843010F40E9485
:101FA000510C80915E04811107C094E0988FDF91FD
:101FB000CF911F910F910895B80182E00E94A30E66
:101FC000888F843030F41D870C871A8E198E81E03B
:101FD000EECF80E0ECCF7F928F929F92AF92BF9234
:101FE000CF92DF92EF92FF920F931F93CF93DF93E5
:101FF00000D0CDB7DEB7782E8B014A01590122E01F
:1020000030E0AE014F5F5F4F64E270E00E947A0DF6
:10201000E980FA80FE24EF24FE24E00EF11E9701F1
:10202000377040915E04072D10E0433309F042C041
:10203000085F1F4F102F0027110F110F110FC9013B
:10204000800F911F4733C9F1A9014A0D5B1D413033
:10205000584098F160E078E06B01C21AD30AA601FB
:10206000B4010E946D07A5014C195D09B4016C0D06
:102070007D1DC8010E946D07EA0CFB1CF982EA82F3
:1020800022E030E0AE014F5F5F4F64E270E0872DE9
:102090000E943E080F900F90DF91CF911F910F91FA
:1020A000FF90EF90DF90CF90BF90AF909F908F9078
:1020B0007F900895005F1F4FBDCFA501B401DACF17
:1020C000EF92FF921F93CF93DF9300D0CDB7DEB78F
:1020D000182F22E030E0AE014F5F5F4F60E270E00A
:1020E0000E947A0DE980FA80FE24EF24FE2422E08B
:1020F00030E0AE014F5F5F4F60E270E0812F0E94E1
:102100007A0D89819A81982789279827E816F906F8
:1021100089F487E0189FF0011124EE5BFB4FF582F4
:10212000E482C7010F900F90DF91CF911F91FF9034
:10213000EF9008957C01DBCF1F93CF93DF93182F8F
:1021400080E591E00E945C02812F0E946010EC010A
:1021500063E070E0812F0E94180C873121F08C31F0
:1021600011F0D0E0C0E0CE01DF91CF911F91089532
:10217000CF93DF93EC018C85843060F40E946A0C6D
:10218000873111F08C3131F48C850E949C108115BF
:10219000984088F3DF91CF910895FC0184858430C5
:1021A00010F40C949C1090E080E008959F92AF9200
:1021B000BF92CF92DF92EF92FF920F931F93CF9334
:1021C000DF938C015B01942EE52EFC01C688D78835
:1021D000F08C80E591E00E945C028F2D0E946010DF
:1021E000C92DDE2D8C179D0708F4EC019E01A50179
:1021F000B6018F2D0E94EB0FF801868997898C0F0D
:102200009D1F978B868BCE01DF91CF911F910F91F0
:10221000FF90EF90DF90CF90BF90AF909F90089588
:102220008F929F92AF92BF92CF92DF92EF92FF92E6
:102230000F931F93CF936C015B018A01FC01C4854E
:10224000C430F0F57A014130584018F0E12C88E0B4
:10225000F82E80E591E00E945C028C2F0E946010B5
:102260004C0163E070E08C2F0E94180C873111F054
:102270008C3149F58E149F0460F380E591E00E9453
:102280005C029701A50170E060E08C2F0E94EB0FCB
:1022900060E270E08C2F0E94350C62E070E08C2FC1
:1022A0000E94180C84FD17C063E070E08C2F0E9420
:1022B000180C81110BC081E090E0F60193838283BA
:1022C00010E000E010C0F12CE12CD7CF80E591E0C8
:1022D0000E945C02E2CF40E162E070E08C2F0E943D
:1022E0007908EF2841F3C801CF911F910F91FF901A
:1022F000EF90DF90CF90BF90AF909F908F90089518
:10230000FF920F931F93CF93DF9300D0CDB7DEB72B
:10231000F82E22E030E0AE014F5F5F4F66E270E0E2
:102320000E947A0D09811A8110270127102722E0C7
:1023300030E0AE014F5F5F4F66E270E08F2D0E948C
:102340007A0D89819A819827892798270817190774
:1023500049F4C8010F900F90DF91CF911F910F9119
:10236000FF9008958C01E3CF1F93CF93DF93182F35
:1023700087E0189FE0011124CE5BDB4F88819981B3
:10238000009761F480E591E00E945C02812F0E9439
:1023900080112E81821B910999838883DF91CF91CF
:1023A0001F910895FC018485843010F40C94B411BD
:1023B00090E080E008954F925F927F928F929F927B
:1023C000AF92BF92CF92DF92EF92FF920F931F9343
:1023D000CF93DF9300D0CDB7DEB7782E6B014A01E3
:1023E000A82EB12C27E0829FC0011124FC01EE5BD6
:1023F000FB4F7F010081118180E591E00E945C022A
:102400000815190554F4872D0E948011F7012681C3
:102410008C01021B1109118300830115110529F597
:1024200063E070E0872D0E94180C843159F08823F6
:1024300049F001E010E08C3111F410E000E011955A
:1024400001951109C8010F900F90DF91CF911F9155
:102450000F91FF90EF90DF90CF90BF90AF909F9043
:102460008F907F905F904F900895801691060CF4A6
:10247000840187E08A9DF0018B9DF00D1124EE5BB5
:10248000FB4FE280F380C114D10451F12701F7E042
:102490005F22872D0E943008840D951D20915E04D7
:1024A000273309F453C09801240D351D21303840DD
:1024B00008F44CC020E038E0490184189508A401D4
:1024C000B6010E948D0B2601480C591C6801C818E2
:1024D000D908872D0E943008A601B2010E948D0BF9
:1024E000E00EF11E87E08A9DF0018B9DF00D112416
:1024F000EE5BFB4FF382E28220813181201B310BA6
:10250000318320838681800F912F911D8A3F910511
:1025100010F4232BF1F487E08A9DF0018B9DF00DE0
:102520001124EE5BFB4F1682F982EA8222E030E052
:10253000AE014F5F5F4F68E270E0872D0E943E085A
:1025400060E470E0872D0E94350C7CCFA801B601B5
:10255000C5CF868377CFCF93DF93FC01218D328D5A
:102560002115310529F48FEF9FEFDF91CF91089569
:10257000EC01808D4217530708F0A9010E94DB117E
:102580001816190684F7298D3A8D281B390B3A8FB6
:10259000298FEBCF0F931F93CF93DF931F92CDB76C
:1025A000DEB7FC01218D328D232B41F48FEF9FEF9D
:1025B0000F90DF91CF911F910F9108958C0141E011
:1025C00050E0BE016F5F7F4FFC01808D0E94DB11E8
:1025D000181619065CF7F801818D928D0197928F7C
:1025E000818F898190E0E4CFCF93DF931F92CDB7A5
:1025F000DEB741E050E0BE016F5F7F4FFC01848594
:102600000E94DB111816190634F4898190E00F90AE
:10261000DF91CF9108958FEF9FEFF9CFFC01848573
:10262000843010F40C94DB1190E080E008950F9357
:102630001F93CF93DF9300D0CDB7DEB7FC01248585
:102640002430E0F48C0180E591E00E945C0222E0FD
:1026500030E0AE014F5F5F4F60E170E0F8018485CC
:102660000E947A0D89819A819827892798270F904F
:102670000F90DF91CF911F910F91089590E080E02E
:10268000F6CF0F931F93CF93DF9300D0CDB7DEB774
:10269000FC0124852430E0F48C0180E591E00E9467
:1026A0005C0222E030E0AE014F5F5F4F64E070E01B
:1026B000F80184850E947A0D89819A81982789275B
:1026C00098270F900F90DF91CF911F910F91089550
:1026D00090E080E0F6CFDC018BEC91E08D939D9350
:1026E00084E0FB0101900D928A95E1F70895EF9245
:1026F000FF920F931F93CF93DF9300D000D0CDB7FD
:10270000DEB78C017B01FB0184858430A8F08BEC63
:1027100091E0F801918380831282138214821582E2
:10272000C8010F900F900F900F90DF91CF911F91E4
:102730000F91FF90EF90089580E591E00E945C0278
:1027400024E030E0AE014F5F5F4F6CE070E0F701D6
:1027500084850E947A0DBE016F5F7F4FC8010E9481
:102760006B13DECF0F931F93CF93DF93CDB7DEB7FD
:1027700028970FB6F894DEBF0FBECDBF8C01D801ED
:1027800059964D915C915A974115510551F0ED9133
:10279000FC91048CF58DE02D70E060E0C801099596
:1027A000EECFF801808D0E94B411892BB1F148E081
:1027B00050E0BE016F5F7F4FD80158968C910E9408
:1027C000DB1118161906F4F4D801509684E0FE01C6
:1027D000319601900D928A95E1F78D8190E0982FC6
:1027E00088272E81820F911DF801958B848B8F8114
:1027F000282F30E0322F22278885820F932F911DBA
:10280000928F818F28960FB6F894DEBF0FBECDBF92
:10281000DF91CF911F910F91089590E080E0F2CF6A
:102820004F925F926F927F928F929F92AF92BF92E0
:10283000CF92DF92EF92FF920F931F93CF93DF938C
:10284000CDB7DEB763970FB6F894DEBF0FBECDBF2E
:102850007C016B013A01FB0120E090E080E06AE03E
:102860003191332309F461C040ED430F4A3008F041
:102870004DC0689FA001699F500D1124CA01C097E7
:10288000830F911D37FD9A958F3F910549F340F3D2
:10289000F701428153816481758180913405909163
:1028A0003505A0913605B0913705481759076A07D5
:1028B0007B0709F40DC28701085F1F4F0E94D203F6
:1028C0006F7077277C5FC8010E94C60F813009F0C6
:1028D00004C28BEC91E09A838983F7018281938112
:1028E000A481B5818B839C83AD83BE8345E350E097
:1028F000BE016F5F7F4FC8010E94CE08892BA9F5EA
:10290000D12CC12CC8010E945D0C17C03E3209F0C9
:10291000BFCF233009F4BCCFD301A20FB11D129653
:102920008C932F5F90E080E09BCF233009F0B0CFF5
:10293000F3018583CC24C394D12CC60163960FB6D2
:10294000F894DEBF0FBECDBFDF91CF911F910F91E5
:10295000FF90EF90DF90CF90BF90AF909F908F90BF
:102960007F906F905F904F9008950E94D203F7017F
:102970007783668342E050E0B7016A5F7F4FC8010A
:102980000E94D61081E090E09A83898342E050E073
:10299000BE016F5F7F4FC8010E94D61080E091E0BA
:1029A0009A83898342E050E0BE016F5F7F4FC80188
:1029B0000E94D6101A82198242E050E0BE016F5F79
:1029C0007F4FC8010E94D61042E050E0BE016F5F09
:1029D0007F4FC8010E94D61042E050E0BE016F5FF9
:1029E0007F4FC8010E94D6105601F60180818823CE
:1029F00001F16501F60181912F01882311F08E32DA
:102A0000B1F446018A189B081814190474F48D86D1
:102A100041E050E0BE01635F7F4FC8010E94D610C5
:102A2000A401B501C8010E94D6105201DECF620197
:102A3000E1CF1D8641E050E0BE01635F7F4FC801DA
:102A40000E94D610C12CDD24D394DA82C98242E0E0
:102A500050E0BE016F5F7F4FC8010E94D610DA823E
:102A6000C98242E050E0BE016F5F7F4FC8010E9403
:102A7000D610C8010E94D10C892B09F441CFF3E094
:102A8000AF2EB12C230122E0420E511CD4C0F7011D
:102A90004281538164817581808D918DA28DB38D2A
:102AA000481759076A077B0709F008C1848D958D7F
:102AB000C59709F003C181A192A15DEFC52EDD2468
:102AC000DA940C970CF4ADC04CE050E0BE016F5F9F
:102AD0007F4FC8010E94AB128B819C819827892768
:102AE00098279A8B898BF7014681578129813A81F2
:102AF0004217530709F0E7C097FFE5C08F70927047
:102B00003BEFC32EDD24DA94892B09F08AC06F8055
:102B100078847624672476242AEFC22EDD24DA9482
:102B20006114710409F47DC0D12CC12C8D819E816A
:102B3000982789279827C816D906F8F441E050E06D
:102B4000BE01635F7F4FC8010E94AB124D854423D5
:102B500031F050E070E060E0C8010E94AB128D855A
:102B60008111ECCF44E050E070E060E0C8010E94C9
:102B7000AB12FFEFCF1ADF0AD9CF912C812C41E0A5
:102B800050E0BE016D5E7F4FC8010E94AB124B89C1
:102B9000842F807C09F06CC0442331F050E070E059
:102BA00060E0C8010E94AB128B898111E8CF42E03E
:102BB00050E0BE01615F7F4FC8010E94AB1242E04E
:102BC00050E0BE01635F7F4FC8010E94AB1244E03A
:102BD00050E070E060E0C8010E94AB1242E050E0BB
:102BE000BE016F5E7F4FC8010E94AB128F8598892E
:102BF00049895A898115914009F043C0CD84DE840A
:102C0000DC24CD24DC2481E0C816D104D1F54115A3
:102C1000544009F04AC044E050E0B201C8010E94AB
:102C2000AB1221E0A21AB10809F46CCEFFEFCF1667
:102C3000DF0609F067CE0E94D2033B014C01C801B8
:102C40000E94B213181619060CF421CF0E94D20369
:102C500066197709880999096938734181059105D1
:102C600048F562E370E080E090E00E949F03E7CFC8
:102C700041E050E070E060E0C8010E94AB121B8AA6
:102C800093CF54274527542770E060E0C8010E9485
:102C9000AB12FFEF8F1A9F0A6814790409F06FCF07
:102CA00096EFC92EDD24DA94BCCFE7EFCE2EDD24DB
:102CB000DA94B7CFCC24CA94DC2CB3CF6EEFC62EF7
:102CC000DD24DA94AECF4CEFC42EDD24DA94A9CF04
:102CD0008EEFC82EDD24DA9430CED12CC12C2DCE2F
:102CE000CF92DF92EF92FF920F931F93CF93DF93D8
:102CF000CDB7DEB7AF970FB6F894DEBF0FBECDBF2E
:102D00007C016A010BEC11E01A8309831C861B8687
:102D100088EE93E0A0E0B0E08D879E87AF87B88B08
:102D20008FE391E09A878987188F0F8B198E1A8EFF
:102D30001B8E1C8E84E089A31BA70AA71CA61DA6B8
:102D40001EA61FA68091280590912905A0912A050D
:102D5000B0912B058EA39FA3A8A7B9A78B839C83B3
:102D6000AD83BE8318861F82AE01465D5F4FCE01E4
:102D700001960E94101481309105B1F4D701ED91B4
:102D8000FC910488F589E02D1DA30CA38CA59DA5BD
:102D9000AEA5BFA58EA39FA3A8A7B9A7A601BE01F4
:102DA0006C5D7F4FC7010995AF960FB6F894DEBFF3
:102DB0000FBECDBFDF91CF911F910F91FF90EF908C
:102DC000DF90CF900895CF92DF92EF92FF920F9312
:102DD0001F93CF93DF93CDB7DEB7AF970FB6F894BD
:102DE000DEBF0FBECDBF8C016B017A018BEC91E091
:102DF0009A8389831B821C821D821E821C861B86ED
:102E000048EE53E060E070E04D875E876F87788B17
:102E10002FE331E03A872987988F8F8B198E1A8E8E
:102E20001B8E1C8E24E029A39BA78AA71CA61DA687
:102E30001EA61FA6D8011C968C91843060F40E94B7
:102E40006A0C882321F0F80184850E94450C84E0F7
:102E5000D8011C968C938091280590912905A0910A
:102E60002A05B0912B058EA39FA3A8A7B9A78B8392
:102E70009C83AD83BE8318861F82AE01465D5F4F83
:102E8000B601CE0101960E9410140097C1F0D8013E
:102E9000ED91FC910684F785E02D8BEC91E09DA3EC
:102EA0008CA38CA59DA5AEA5BFA58EA39FA3A8A707
:102EB000B9A7A701BE016C5D7F4FC8010995AF9608
:102EC0000FB6F894DEBF0FBECDBFDF91CF911F913B
:102ED0000F91FF90EF90DF90CF9008957F928F92A7
:102EE0009F92AF92BF92CF92DF92EF92FF920F9399
:102EF0001F93CF93DF93CDB7DEB7A6970FB6F894A5
:102F0000DEBF0FBECDBF8C01762E942E852E20E223
:102F1000A22ECE0101967C01DC01EA2D1D92EA95DC
:102F2000E9F76801F3E4CF0ED11C8BEC91E09AA392
:102F300089A38FEF8BA38CA38DA38EA343E450E0D2
:102F4000BE016F5D7F4FC6010E94CE08019609F455
:102F5000BFC081E089838A8386E0B82EBB821C8251
:102F6000D80114966D917D918D919C9117970E9437
:102F700053356D837E838F83988789869A8680E810
:102F800090E09C878B874CE150E0B701C6010E941E
:102F9000D610FE0137968AE1DF011D928A95E9F786
:102FA0004801B8E08B0E911CF401D70101900D92FD
:102FB000BA94E1F740E150E0B701C6010E94D61093
:102FC000F7011192AA94E9F796E0A92EB12C40E2FC
:102FD00050E0B701C6010E94D610F1E0AF1AB10867
:102FE000B1F783E6898392E89A8393E59B838C8388
:102FF00085E38D8381E08E837F829DE3988797E0D0
:1030000099878A8786E0F401DE011B9601900D9274
:103010008A95E1F78CE0898B8A8B62E272E0CE01BF
:1030200043960E944336D8011B966C91CE01499677
:103030000E945F02F8016485CE014B960E945F02F8
:10304000D8011D966C91CE014D960E945F024EE113
:1030500050E0B701C6010E94D610B3E07B121EC03B
:1030600082E3898384E08A83F80196859B83978530
:103070009C8390899D8391899E8396E39F83888713
:10308000828D8987838D8A87848D8B87858D8C87B8
:103090004CE050E0B701C6010E94D61087E3898357
:1030A00086E08A8391E09B8393E09C838D838FE00D
:1030B0008E838AE38F838BE388878FEF898749E04C
:1030C00050E0B701C6010E94D610C6010E94D10C83
:1030D000A6960FB6F894DEBF0FBECDBFDF91CF919D
:1030E0001F910F91FF90EF90DF90CF90BF90AF9026
:1030F0009F908F907F9008950F931F93CF93DF93AE
:10310000EC01FB0101900020E9F78F01061B170B72
:103110008A819B81A801480F591F2C813D8124176A
:10312000350768F028813981A801820F931F0E941A
:103130002A364A815B81400F511F5B834A83DF91AE
:10314000CF911F910F9108950F931F93CF93DF930A
:10315000EC0188819981009759F02A813B812617DB
:10316000370730F081E0DF91CF911F910F910895E3
:103170008B016F5F7F4F0E946035009759F09983F4
:1031800088831B830A832C813D81232B59F7FC0103
:103190001082E8CF80E0E7CF85ED8093BC0080917E
:1031A000990390919A03A0919B03B0919C03079679
:1031B000A11DB11D23E0B695A795979587952A95F2
:1031C000D1F72091BC0024FD03C01092970308950D
:1031D0004091990350919A0360919B0370919C03D5
:1031E000452B462B472B69F30097A105B10541F00C
:1031F0002AE22A95F1F700C00197A109B109E1CFB0
:10320000809198030C94AA053F924F925F926F921F
:103210007F928F929F92AF92BF92CF92DF92EF9266
:10322000FF920F931F93CF93DF93CDB7DEB7EA974B
:103230000FB6F894DEBF0FBECDBF7C012A013B0163
:1032400069010E94D2034B015C0187010D5B1F4F96
:10325000C8010E94B213181619069CF00E94D203EE
:10326000681979098A099B0946165706680679067E
:1032700008F466C162E370E080E090E00E949F0382
:10328000E7CF42E250E0BE016F5F7F4FC8010E946E
:10329000AB1289818230D1F0312C832DEA960FB6A2
:1032A000F894DEBF0FBECDBFDF91CF911F910F917C
:1032B000FF90EF90DF90CF90BF90AF909F908F9056
:1032C0007F906F905F904F903F900895F8018489B0
:1032D00095898334910501F76D817E818F81988571
:1032E0000E9453354B015C01F60180829182A282DB
:1032F000B38246E050E0B701685F7F4FCE014D9644
:103300000E941D36892B41F6F70180819181A281AF
:10331000B38188169906AA06BB0608F4BDCF84813E
:103320009581A681B78188159905AA05BB0508F482
:10333000B3CF89899A89AB89BC8986879787A08B07
:10334000B18B4EEC50E070E060E0C8010E94AB121F
:10335000312CC701829698AB8FA7F701B696FAABCE
:10336000E9AB08969CAB8BAB67019AE1C90ED11C07
:10337000BD96FEABEDABC701429698AF8FABFD9704
:10338000FAAFE9AF4701FEE18F0E911CF801818D84
:10339000928D181619060CF080CFC8010E94CA122F
:1033A0008333910509F4B2C014F58130910509F415
:1033B00064C044F4892B51F3C8010E94CA12AC01C5
:1033C000552775C08330910509F462C00697A1F7AF
:1033D000C8010E94CA12B82E44E050E0B401C801EE
:1033E0000E94AB12EB2DE450FF0BAF0160C08A339B
:1033F000910509F45FC084F585339105B1F1C69755
:10340000D9F6C8010E94CA125C01B601CE018996A4
:103410000E946B138BA59CA5ADA5BEA5892B8A2BFD
:103420008B2BB1F0EDA9FEA94080518062807380A2
:10343000B601CE0183960E946B138DA19EA1AFA110
:10344000B8A5A501481659066A067B0609F0B8CF4B
:1034500044E050E0B60118C08B33910509F440C038
:103460008F3F910509F492CFA7CFC8010E94CA12DD
:10347000C8010E94CA12382E89CFC8010E94CA1200
:1034800044E050E06FA978ADC8010E94AB127ECF36
:10349000C8010E94CA12B82E44E050E069AD7AAD6E
:1034A000C8010E94AB128B2D8450990BAC0170E0C7
:1034B00060E0EACFC8010E94CA1244E050E069A966
:1034C0007AA9C8010E94AB12F70166A177A180A575
:1034D00091A50E94533566A377A380A791A756CFE5
:1034E000C8010E94CA1244E050E06BA97CA9C8013F
:1034F0000E94AB12F70162A573A584A595A50E9451
:10350000533562A773A784A795A740CFC8010E942F
:10351000CA1244E050E06FA578A9C8010E94AB121E
:10352000F70162A173A184A195A10E94533562A302
:1035300073A384A395A366A777A780AB91AB26CF8F
:1035400033243A94AACE0F931F93CF93DF93CDB732
:10355000DEB762970FB6F894DEBF0FBECDBF8C0109
:10356000CB014AE0BE016F5F7F4F0E948A30BE01EF
:103570006F5F7F4FC8010E947C1862960FB6F89467
:10358000DEBF0FBECDBFDF91CF911F910F91089588
:103590003F924F925F926F927F928F929F92AF92E3
:1035A000BF92CF92DF92EF92FF920F931F93CF9330
:1035B000DF93CDB7DEB7A1970FB6F894DEBF0FBE8D
:1035C000CDBF5C010DB71EB719A308A360E070E082
:1035D000CB010E949F03D50157968D919C915897DE
:1035E000912C029709F4BFC356968C9156978F5F22
:1035F00056968C93569754962D913C91232B19F007
:1036000099249394A9C38330D8F7F50180819181DF
:103610000E947609882309F47FC38E010F5F1F4F34
:103620003801D501ED91FC9180819181DC01ED9112
:10363000FC910084F185E02D0995181619060CF00F
:103640006BC3D501ED91FC9145E050E0BE01695E90
:103650007F4F808191810E94E103009711F30597CC
:1036600009F074C0888D998D982789279827998F9C
:10367000888FEA8CFB8CFE24EF24FE24FB8EEA8EDE
:10368000892B09F463C08F89811173C00E94D20312
:10369000F50166837783808791872789308D8A8DAE
:1036A0009B8D232B09F061C0288D398D2130310588
:1036B00009F05BC089309105E1F1883C910519F072
:1036C000049709F047C00E94E10A8EEF92E00E9441
:1036D0002505D50116964D915D916D917C911997B7
:1036E0001E968D919D910D90BC91A02D481B590B5C
:1036F0006A0B7B0B2AE08FE594E00E943A0A89EF7F
:1037000092E00E942A0AF50186819781A085B18501
:1037100086879787A08BB18B01E010E0108F078B15
:10372000C5010E94CA2460E070E0CB010E949F03A3
:1037300078CF0E94E10A8AE294E00E942A0A83E09C
:1037400090E0D50158969C938E935797D5018D9113
:103750009C91FFC20E94E10A83E194E00E9425054A
:103760008A8D9B8D0E94CB0AF1CF059709F059CF26
:10377000EDCFB1E0EB16FB0690F00E94E10A82E08B
:1037800094E00E9425058A8D9B8D0E94CB0AF5014D
:10379000108E178A808191810E94890942CF8DB64F
:1037A0009EB6C70101960DB71EB7081B190B0FB6C1
:1037B000F8941EBF0FBE0DBF0F5F1F4FD501ED91D7
:1037C000FC91A701B801808191810E94E1038E15CF
:1037D0009F0509F07BC0EA8DFB8DE00FF11F108281
:1037E0000E94D203F50166837783808791878F8952
:1037F000813109F47CC2A0F58630F1F08F3009F4F4
:10380000D7C0823099F5D50157968D919C91892B1F
:1038100099F40E94E10A8CEF93E00E942A0A01E0E9
:1038200010E0F501108F078BC5010E94CA2460E0EB
:1038300070E0CB010E949F03488D598DD12CC12C83
:10384000F12CE12C08EC10E030E020E060E0C50154
:103850000E941C200FB6F8949EBE0FBE8DBEE1CE16
:103860008D3189F258F4843109F4A2C0F501108E2B
:10387000178A808191810E948909ECCF893281F079
:103880008733A1F78A8D9B8D892B21F30E94E10A52
:1038900083EE93E00E942505C8010E949524DACFAB
:1038A00084819581892B39F480E490E00E94732E05
:1038B000F50195838483EA8CFB8CE00EF11E1A835C
:1038C0000983FC82EB820E151F0530F00FB6F894C9
:1038D0009EBE0FBE8DBE3ACF40E450E0B801D50188
:1038E00014968D919C910E944A36D5011496ED91C3
:1038F000FC9117AEC3010E94A824FC018081918134
:1039000000E510E08E159F0570F489819A8100977B
:1039100009F44AC02B813C818217930708F044C008
:103920000E945A308B010E94E10A8CEE93E00E94C3
:103930002505D50114966D917C918FE594E00E9448
:10394000F30A6AE38FE594E00E943104C8010E9403
:10395000CB0AF501808191810E948909D501ED9101
:10396000FC91119714968D919C9115979187808762
:103970001387028758961C921E9257970E94D20373
:10398000DC01CB0188589341A109B109F501828777
:103990009387A487B58786839783A087B187868717
:1039A0009787A08BB18B56CF60E070E0CB01BACF88
:1039B000888D998DD50155969C938E9354974A8CFA
:1039C0005B8C6801C40CD51C1D8F0C8FDF8ECE8ED6
:1039D0000C151D0508F013C1F801E080F180CE013F
:1039E0004C960E94A824DC018D919C918C159D051C
:1039F00008F005C18C8D9D8DFC012081213459F486
:103A000001960E943C304EE0342E380E069744F06A
:103A100033243A9405C0CE014C960E94BB24382E24
:103A2000F6E7EF16F2E7FF0609F406C138F531E6CE
:103A3000E31632E7F30609F4E6C044E6E41642E78B
:103A4000F40609F478C050E7E5165DE6F50609F0DE
:103A500037C18C8D9D8D8C159D0508F0D0C0FC0163
:103A600020812134A9F501960E943C303EE0F32EDE
:103A7000F80E069794F1FF24FA942FC084E6E81616
:103A800087E7F80609F4A2C096E7E91697E7F90672
:103A900009F4E9C0A1E6EA16A7E7FA0609F010C1A1
:103AA000CE014C960E94A824DC018D919C918C152E
:103AB0009D0508F0A4C061E0832D0E94CC02CE01D8
:103AC0004C960E94BB24BC01832D0E94080397C022
:103AD000CE014C960E94BB24F82ECE014C960E943B
:103AE000A8240C8D1D8D69E272E0C8010E943A364F
:103AF00060E0892B79F06CE272E0C8010E943A36EE
:103B0000892B39F060E372E0C8010E943A36892BB4
:103B100049F461E08F2D0E94CC02CE014C960E94A8
:103B2000A82497CF64E372E0C8010E943A36892B3B
:103B3000A1F762E0EFCF7A8A698A1C8A1B8A00E1CA
:103B400010E01E8B0D8B67E372E0CE0141960E9460
:103B50007C18032D10E0B801CE0141960E94A31AF3
:103B6000F801E25CFC4F8491F801E65DFC4FF490B3
:103B70000A5E1C4FF801049160E070E0002389F0B8
:103B800081110E947502E02FF0E0EE0FFF1FE45F4D
:103B9000FC4FA591B491EC91FE2261E070E009F434
:103BA00060E0CE0141960E94A31A0B891C89015046
:103BB000110929893A89D12CC12CF12CE12C50E032
:103BC00040E064E1C5010E941C2019C0CE014C9662
:103BD0000E94A824DC018D919C918C159D0578F4A0
:103BE00061E0832D0E94CC02CE014C960E94BB2442
:103BF00061E0892B09F460E0832D0E949E02F501AB
:103C0000158A148A27CE7A8A698A1C8A1B8AE0E17F
:103C1000F0E0FE8BED8B6AE372E0CE0141960E94EC
:103C20007C18632D70E0CE0141960E94A31A832D6B
:103C30000E946503BC01B5CF3982BFE1B315F8F22C
:103C4000E32DF0E0EE0FFF1FEE5AFC4F259134916B
:103C500021153105A1F2E2E02B353E0781F2C301C7
:103C6000F9010995CCCFCE014C960E94A8248C8DE9
:103C70009D8D9C01201B310B421A530A9A83898324
:103C80005C824B825E824D82398AFFE1F31508F433
:103C9000B6CFE32DF0E0EE0FFF1FEE56FC4F25915F
:103CA00034912115310509F4AACF02E02A353007F5
:103CB00009F4A5CFB301CE014196F90109959FCF33
:103CC0000E94E10A82ED93E00E942505C8010E944E
:103CD0009524D50154964D915C91D12CC12CF12C99
:103CE000E12C02E010E030E020E060E06BCF8A8D54
:103CF0009B8D800F911F1A8309839C838B830817E8
:103D0000190708F0A7CDC3010E94A824D501559634
:103D10001C921E9254979ECD0E94D2032B013C010F
:103D2000F501808191810E947609D50157962D91E8
:103D30003C9158972130310509F094C0F50181116B
:103D400032C046865786608A718A108E178A8081B3
:103D500091810E948909912CD50156968C91569794
:103D6000815056968C93892DE8A1F9A10FB6F8944D
:103D7000FEBF0FBEEDBFA1960FB6F894DEBF0FBE1B
:103D8000CDBFDF91CF911F910F91FF90EF90DF900A
:103D9000CF90BF90AF909F908F907F906F905F90EB
:103DA0004F903F90089586819781A085B1859301BA
:103DB0008201081B190B2A0B3B0BD901C801893161
:103DC00016EF9107A105B10560F00E94E10A8BE4AE
:103DD00094E00E942A0AD50158961C921E92579789
:103DE000B6CC893C9F4AA105B10598F4F5018285BE
:103DF0009385A485B58593018201081B190B2A0BB5
:103E00003B0BD901C801893C9F4AA105B10508F4C3
:103E1000F7CBF50186859785A089B1899301820149
:103E2000081B190B2A0B3B0BD901C801813797419D
:103E3000A105B10508F4E4CBD12CC12CF12CE12C67
:103E400010E000E030E020E050E040E066E0C50136
:103E50000E941C20D5011E964D925D926D927C921F
:103E60005197CECB232B09F0CBCBF5014685578557
:103E70006089718993018201041B150B260B370B96
:103E8000B901A8018823A9F041375741610571059F
:103E900008F4B6CB0E94E10A8DE394E00E942A0A5E
:103EA000D5018D919C910E948909F501108E178A88
:103EB00052CF493853416105710508F4A1CB8D916A
:103EC0009C910E948909F50100811181D801189601
:103ED0008D919C91892BA9F10E94E10A8AEE92E0D2
:103EE0000E942505F801608571858FE594E00E94A8
:103EF000F30A6AE38FE594E00E943104D8011A9630
:103F00008D919C910E94CB0AF8018081918142851C
:103F1000538560857185DC01ED91FC910088F18904
:103F2000E02D099521E0019709F020E0F8012487B0
:103F3000948491105BC0F50146865786608A718A29
:103F40000BCF0E94E10A8BED92E00E942505D8017B
:103F500014966C918FE594E00E94860A6EE28FE5DC
:103F600094E00E943104F80165818FE594E00E949D
:103F7000860A6EE28FE594E00E943104D80116961D
:103F80006C918FE594E00E94860A6EE28FE594E0E2
:103F90000E943104F80167818FE594E00E94860A4F
:103FA0006DEC71E08FE594E00E941B0AD8018D91C1
:103FB0009C91DC01ED91FC910684F785E02DD80100
:103FC0001A964D915C911B972BEC31E03A83298333
:103FD0001496CD90DD90ED90FC901797CB82DC820B
:103FE000ED82FE82BE016F5F7F4F9BCF81E090E04C
:103FF000D50153969C938E93529712962D913C9196
:10400000F90101900020E9F731978F01021B130B92
:10401000D12CC12CF12CE12C41E050E06DE1C50127
:104020000E941C20F50182859385A485B58586872D
:104030009787A08BB18B90CE2F923F924F925F9239
:104040006F927F928F929F92AF92BF92CF92DF92A8
:10405000EF92FF920F931F93CF93DF9300D000D086
:1040600000D0CDB7DEB75C016E834A013901DC01B7
:104070008D919C910E947609882309F4D3C08E818A
:104080008D7F09F401C1BE81B63009F4FDC0BD3198
:1040900009F4FAC0F5018789908D019709F0C2C033
:1040A00081149104B9F4D50154968D909C90559744
:1040B0008114910479F452968D919C9153970196B5
:1040C00009F4C9C053969C938E935297D50152968A
:1040D0008D909C908E818C50893090F5F501828571
:1040E0009385A485B585468157816085718548177C
:1040F00059076A077B0710F4AC01BD011A012B01B7
:10410000F2E42F0E311C411C511C0E94D203A2016B
:104110009101261B370B480B590BDA01C901B7FD7A
:10412000A0C0C5010E94C81A0E94D203A201910139
:10413000261B370B480B590BDA01C901B7FFF1CF2A
:10414000C80105966114710411F485E090E0512CCA
:10415000412CE114F10409F02601480E591EBE81DC
:10416000B9839824892498249B828A82C8018C0D63
:104170009D1D9827892798279D838C83D501ED91D4
:10418000FC9180819181DC01ED91FC910280F381B1
:10419000E02D45E050E0BE016F5F7F4F09954C0177
:1041A00060E070E0CB010E949F03BE81BB2381F1E0
:1041B00001151105A9F0D501ED91FC918081918146
:1041C000DC01ED91FC910280F381E02DA801B301A7
:1041D0000995880E991E60E070E0CB010E949F0354
:1041E000C114D104A9F0D501ED91FC918081918198
:1041F000DC01ED91FC910280F381E02DA601B70175
:104200000995880E991E60E070E0CB010E949F0323
:104210008414950479F1F501108E178A80819181BB
:104220000E94890926960FB6F894DEBF0FBECDBF57
:10423000DF91CF911F910F91FF90EF90DF90CF9082
:10424000BF90AF909F908F907F906F905F904F90B6
:104250003F902F90089581E090E0F501938B828B41
:1042600035CFD50156968C9181116ACFC5010E9438
:10427000C81A66CF0E94D203D5011A966D937D931A
:104280008D939C931D97CECF8114910409F058CF44
:104290000ACFCF92DF92EF92FF920F931F93CF93AB
:1042A000DF93CDB7DEB7C658D1090FB6F894DEBF9D
:1042B0000FBECDBF8C01CE010196CF57DF4F998342
:1042C0008883C158D040CD57DF4F19821882C35818
:1042D000D04080E890E0CB57DF4F99838883C55862
:1042E000D0406FE472E0CE018F579F4F0E947C1840
:1042F00066E070E0CE018F579F4F0E94A31AB8016D
:10430000CE018F579F4F0E947C18CD57DF4F0881F9
:104310001981C358D04001501109CF57DF4F288170
:104320003981C158D040D12CC12CF12CE12C50E066
:1043300040E064E18CEA96E00E941C20CA57DF4FFF
:104340000FB6F894DEBF0FBECDBFDF91CF911F91A6
:104350000F91FF90EF90DF90CF900895CF92DF9272
:10436000EF92FF920F931F93CF93DF93CDB7DEB7FA
:10437000C658D1090FB6F894DEBF0FBECDBF7C0181
:104380008B01CE010196CF57DF4F99838883C158A7
:10439000D040CD57DF4F19821882C358D04080E8F3
:1043A00090E0CB57DF4F99838883C558D0406FE4A6
:1043B00072E0CE018F579F4F0E947C18B701CE014B
:1043C0008F579F4F0E94A31AB801CE018F579F4F5E
:1043D0000E94A31ACD57DF4F08811981C358D040DE
:1043E00001501109CF57DF4F28813981C158D04082
:1043F000D12CC12CF12CE12C50E040E064E18CEA9E
:1044000096E00E941C20CA57DF4F0FB6F894DEBF1B
:104410000FBECDBFDF91CF911F910F91FF90EF9015
:10442000DF90CF9008958F929F92AF92BF92CF92DC
:10443000DF92EF92FF920F931F93CF93DF93CDB74D
:10444000DEB7C75AD1090FB6F894DEBF0FBECDBF95
:104450000E9427096B017C01CE0101964C01CE55CB
:10446000DF4F99838883C25AD040CC55DF4F1982E1
:104470001882C45AD04020E8A22EB12CCA55DF4F72
:10448000B982A882C65AD0406FE472E08F559F4F20
:104490000E947C1861E070E0CE018E559F4F0E9413
:1044A000A31A8E010F571F4F23E045E0C701B60145
:1044B0000E94552EB801CE018E559F4F0E947C1848
:1044C000CC55DF4F08811981C45AD04001501109E1
:1044D000CE55DF4F28813981C25AD040D12CC12C12
:1044E000F12CE12C50E040E064E18CEA96E00E947F
:1044F0001C200E9453098C01CE55DF4F998288827F
:10450000C25AD040CC55DF4F19821882C45AD040CD
:10451000CA55DF4FB982A882C65AD0406FE472E014
:10452000CE018E559F4F0E947C1863E070E0CE0153
:104530008E559F4F0E94A31A4AE0BE016F577F4FCE
:10454000C8010E94B230BE016F577F4FCE018E5519
:104550009F4F0E947C18CC55DF4F08811981C45AA7
:10456000D04001501109CE55DF4F28813981C25A00
:10457000D04050E040E064E18CEA96E00E941C20CC
:10458000C955DF4F0FB6F894DEBF0FBECDBFDF9128
:10459000CF911F910F91FF90EF90DF90CF90BF9040
:1045A000AF909F908F9008951F920F920FB60F9229
:1045B00011242F933F938F939F93AF93BF93809139
:1045C0003A0490913B04A0913C04B0913D04309199
:1045D000390423E0230F2D3758F50196A11DB11D95
:1045E0002093390480933A0490933B04A0933C04B5
:1045F000B0933D0480913E0490913F04A09140040B
:10460000B09141040196A11DB11D80933E04909389
:104610003F04A0934004B0934104BF91AF919F9198
:104620008F913F912F910F900FBE0F901F90189573
:1046300026E8230F0296A11DB11DD2CF1F920F9223
:104640000FB60F9211242F933F934F935F936F9365
:104650007F938F939F93AF93BF93EF93FF938FE5D8
:1046600094E00E94B604FF91EF91BF91AF919F91AA
:104670008F917F916F915F914F913F912F910F900B
:104680000FBE0F901F9018951F920F920FB60F92AA
:1046900011242F938F939F93EF93FF93E0916F04D7
:1046A000F09170048081E0917504F091760482FDB0
:1046B0001BC09081809178048F5F8F732091790463
:1046C000821741F0E0917804F0E0E15AFB4F958FBA
:1046D00080937804FF91EF919F918F912F910F908C
:1046E0000FBE0F901F9018958081F4CF1F920F92EC
:1046F0000FB60F9211242F933F934F935F936F93B5
:104700007F938F939F93AF93BF93EF93FF9380918A
:10471000B900887F803609F44AC0F0F5883209F480
:10472000A7C018F5803109F49BC0B8F4882309F4B8
:10473000F9C0883009F494C0FF91EF91BF91AF9117
:104740009F918F917F916F915F914F913F912F91A9
:104750000F900FBE0F901F901895883109F488C0F4
:10476000803251F78093950314C0803409F49DC0C2
:1047700040F48033B9F38833F9F68093950385ECE0
:10478000B0C0803509F485C0883509F496C08834F6
:1047900099F60E94CC18D0CF883909F48CC038F52E
:1047A000883729F050F4883611F0803729F683E0F5
:1047B000809397031092700357C0883809F47BC028
:1047C000803919F0803809F0B7CF809170038032BA
:1047D00008F071C0E091700381E08E0F8093700348
:1047E0008091BB00F0E0E05BFC4F80833DC0803BEC
:1047F00039F0E0F4803A09F479C0883A09F09CCFA6
:1048000084E08093970310924F0310924E03E0913F
:10481000C103F091C203099580914E0381110FC02D
:1048200081E080934E0310922E0309C0803C09F46E
:10483000A6CF883C09F4A3CF883B09F07DCFE09157
:104840004F0381E08E0F80934F03F0E0E25DFC4F59
:1048500080818093BB0090914F0380914E0329C0CB
:10486000809172038093BB0085EC8093BC0064CF81
:104870009091940380919303981758F5E0919403D5
:1048800081E08E0F80939403F0E0ED58FC4F80811F
:10489000E9CFE091940381E08E0F8093940380919F
:1048A000BB00F0E0ED58FC4F808390919403809121
:1048B00093039817C8F285E8D8CFE091940381E07C
:1048C0008E0F809394038091BB00F0E0ED58FC4F75
:1048D00080838091960381115CCF81E08093710386
:1048E00084EA8093BC001092970326CF85EC8093D6
:1048F000BC001092970380917003803230F4E091F5
:104900007003F0E0E05BFC4F10826091700370E098
:10491000E091BF03F091C00380E593E00995109208
:1049200070030ACF1092950334CFCF93DF93BC016D
:104930008FE594E00E941B0AEC016DEC71E08FE5BD
:1049400094E00E941B0A8C0F9D1FDF91CF91089568
:10495000DC01ED91FC911197309761F012962D9149
:104960003C911397E217F30728F401900020E9F730
:10497000ED93FC930895FC0180819181009739F0BB
:10498000228133818217930710F40C943C3090E01D
:1049900080E00895AF92BF92CF92DF92EF92FF92A4
:1049A0000F931F93CF93DF93CDB7DEB7CF5BD109C2
:1049B0000FB6F894DEBF0FBECDBF5C01CE018658A6
:1049C0009F4FC654DF4F99838883CA5BD040C4543D
:1049D000DF4F19821882CC5BD04080E490E0C25453
:1049E000DF4F99838883CE5BD0406DE372E0CE01C8
:1049F00086549F4F0E947C1862E472E0CE01865478
:104A00009F4F0E947C1849E750E06DE671E0CE01AF
:104A100001960E948130C454DF4FC880D980CC5B9E
:104A2000D040C654DF4FE880F980CA5BD04009E728
:104A300010E09E012F5F3F4F50E040E061E1C50173
:104A40000E941C20C154DF4F0FB6F894DEBF0FBE8A
:104A5000CDBFDF91CF911F910F91FF90EF90DF902D
:104A6000CF90BF90AF900895EFE5F4E013821282EB
:104A700088EE93E0A0E0B0E084839583A683B783BB
:104A800029E631E03183208325EC30E03587248727
:104A900024EC30E03787268720EC30E0318B208B08
:104AA00021EC30E0338B228B22EC30E0358B248BF1
:104AB00026EC30E0378B268B118E128E138E148EDF
:104AC000ECEFF4E01382128284839583A683B7838C
:104AD0008BE791E091838083E8E0F5E08BEC91E057
:104AE000918380831282138214821582EEE0F5E0B6
:104AF000918380831282138214821582E4E1F5E0AF
:104B0000918380831282138214821582EAE1F5E098
:104B1000918380831282138214821582E0E2F5E091
:104B2000918380831282138214821582ECE2F5E075
:104B3000918380831282138214821582E6E2F5E06B
:104B4000918380831282138214821582E2E3F5E05E
:104B5000918380831282138214821582E8E3F5E048
:104B6000918380831282138214821582E7EEF6E02D
:104B7000918380831282138214821582E8EDF6E01D
:104B80001382128229E931E03183208324E02487D3
:104B900028EE33E036872587ABECB6E013969C937E
:104BA0008E93129714961D921D921D921C92179728
:104BB00019961C921E9218971B961C921E921A9779
:104BC0001C961C921C971196FC93EE9340E757E1BC
:104BD00060E070E04483558366837783ECEAF6E017
:104BE000B183A083138212821582148216821782E7
:104BF00010861186128613861486158616861786E9
:104C0000108A118A138A128A158A148A168A108EBB
:104C1000178A8FEF9FEF9093AB068093AA06EEE37F
:104C2000F5E0138212828DE891E09183808387E220
:104C3000848380E1818782E0828713860895CF9301
:104C4000DF93CDB7DEB7E3970FB6F894DEBF0FBEA4
:104C5000CDBF789484B5826084BD84B5816084BD05
:104C600085B5826085BD85B5816085BD80916E000A
:104C7000816080936E00109281008091810082603B
:104C80008093810080918100816080938100809178
:104C900080008160809380008091B1008460809367
:104CA000B1008091B00081608093B00080917A0063
:104CB000846080937A0080917A00826080937A0089
:104CC00080917A00816080937A0080917A00806878
:104CD00080937A001092C1001092C6031092C5030F
:104CE0001092C4031092C3030E948C058EED93E0D2
:104CF0009093C2038093C1038FED93E09093C00320
:104D00008093BF031092430580914805823018F0CC
:104D100098E0909343058093460562E370E080E05D
:104D200090E00E949F03609149058EE395E00E9408
:104D3000500668EE73E080E090E00E949F0360E31D
:104D40008EE395E00E94B2090BE416E4C8010197D6
:104D5000F1F760E38EE395E00E94B209C801019784
:104D6000F1F760E38EE395E00E94B20983E592E0FB
:104D70000197F1F760E28EE395E00E94B20960913D
:104D80004305606240E08EE395E00E94CB0984E039
:104D90008093440540E06CE08EE395E00E94CB09EF
:104DA00040E061E08EE395E00E94CB090BE31FE158
:104DB000C8010197F1F7F2E0FF2EF092450540E0BF
:104DC00066E08EE395E00E94CB0940E062E08EE36E
:104DD00095E00E94CB09C8010197F1F788E0809324
:104DE000490560E08EE395E00E94500640E061E0F6
:104DF0008EE395E00E94CB09C8010197F1F740E0EE
:104E000062E08EE395E00E94CB09C8010197F1F7BB
:104E100061E083E00E94CC0261E085E00E94CC0268
:104E200061E084E00E94CC0260E085E00E949E0286
:104E300060E084E00E949E0260E080E00E94E2095F
:104E400062E572E08EE395E00E94F30A61E080E0A3
:104E50000E94E20965E572E08EE395E00E94F30AA4
:104E6000E0916F04F0917004F082E0916B04F09196
:104E70006C041082E0916D04F0916E0487E68083EB
:104E800010927704E0917304F091740486E08083BB
:104E9000E0917104F0917204808180618083E091DF
:104EA0007104F0917204808188608083E0917104C4
:104EB000F0917204808180688083E0917104F091A8
:104EC000720480818F7D80838FEF90E00E94400587
:104ED0008FEF90E00E9440058FEF90E00E94400528
:104EE0008091AA069091AB0697FF22C00E94D20340
:104EF000EAE4F5E050E040E026E1249FD001259F60
:104F0000B00D11248D01065B1A4FD801322F1D926E
:104F10003A95E9F760837183828393834F5F5F4F94
:104F200076964031510549F71092AB061092AA06C9
:104F30008091AA069091AB064097CCF5EAE4F5E0A3
:104F400090E080E024813581232B09F068C0268120
:104F50003781232B09F063C026E1289F8001299F18
:104F6000100D1124065B1A4F84EF91E0A0E0B0E031
:104F7000F80183879487A587B68783E192E29583BA
:104F800084831286108A178681E0838B0E94D20365
:104F9000D8016D937D938D939C9313978091AA066E
:104FA0009091AB0601969093AB068093AA060E945F
:104FB000E10A89EB92E00E942A0A8EEF8093C506EF
:104FC0009DEE9093C6062AEB2093C7068093C806F1
:104FD0008093C9069093CA0620E031E0F901019060
:104FE0000020E9F79F0121503140A0E0B1E0E1E06D
:104FF000F0E0AD014050514042175307BCF4AF01FF
:105000004F5F5F4F6D91E455F94F818D8627818FFA
:105010004630510514F041E050E0FA01EACF019624
:1050200076968031910509F08DCFC1CF80912D0406
:1050300081112AC0109215041092140488EE93E096
:10504000A0E0B0E08093160490931704A093180496
:10505000B09319048FE391E09093130480931204AA
:105060008BEC91E090932104809320041092220411
:1050700010922304109224041092250484E080935B
:105080002A0481E080932D048FEC93E09093CE036B
:105090008093CD038091CC038111ADC060E372E0B9
:1050A00080E090E00E949F03DFB6F89400E213E0F6
:1050B000E4E3EE2EE3E0FE2E8091CA03811125C0C9
:1050C000F8018491F7019491E82FF0E0EE0FFF1FB3
:1050D000E953FD4FA591B4918C91982321F461E09F
:1050E0008AE00E949E0261E08AE00E94CC028CB5B8
:1050F00080618CBD8CB580648CBD61E08DE00E94C8
:10510000CC0261E08BE00E94CC028091CA038F5FE9
:105110008093CA03DFBEF8010491E02FF0E0EE0FA8
:10512000FF1FEF52FD4F859194919093C903809397
:10513000C803F701E490E092C70361E08AE00E94AF
:10514000CC020E94510780E591E00E945C0284E35A
:1051500080935E0480E80E941D080E94150D88233C
:1051600009F432C288E00E941D080E94020D8830B6
:1051700009F02AC280E10E941D080E94020D8031C0
:1051800009F022C280E00E941D080E94020D182F23
:1051900081111AC241E050E0BE016F5F7F4F8FE185
:1051A00090E00E948D0B8981833009F00DC280E46C
:1051B0008093CB0342E06EE170E0812F0E9479087A
:1051C00042E06FE170E0812F0E9479081F5F143088
:1051D00089F740E06EE170E0812F0E94790840E09D
:1051E0006FE170E0812F0E9479081F5F183089F706
:1051F00081E08093CC0380E591E00E945C0246E070
:1052000050E065EC76E089E090E00E946D078BEC61
:1052100091E09A8389831B821C821D821E8244E056
:1052200050E0BE016D5F7F4F8FE090E00E946D0700
:105230000091CD031091CE03D80192961D921D923C
:105240001D921C929597F80116A217A210A611A6FE
:105250009A961D921D921D921C929D9780E69AEE41
:10526000A0E0B0E086AB97ABA0AFB1AF80EA9FE023
:10527000A0E0B0E082AF93AFA4AFB5AFD80118966D
:1052800086E0FD01282F11922A95E9F79801225F07
:105290003F4F94E1F90111929A95E9F7E5ECF6E0B8
:1052A00001900D928A95E1F72C5C3F4F39AB28AB0A
:1052B000D9011C920E94E42F2FEC37E040E050E02F
:1052C0000E943234DC01CB010196A11DB11DF80111
:1052D00084839583A683B78380839183A283B383DA
:1052E0005801F3E4AF0EB11CC5010E945D0C64E4EB
:1052F00070E0C5010E94C60F882309F4CEC10E9448
:10530000D2032B013C0143E0242E58EEC52E53E07E
:10531000D52EE12CF12C912C812CA8A9B9A98C9126
:105320008330B9F18111C9C1F80184819581A681C9
:10533000B7810196A11DB11D84839583A683B78390
:105340000E94D2036419750986099709A70196017D
:105350000E949B34A90161E0C8010E946E1781E0A0
:10536000A8A9B9A98C93F1E08F169104B1F20E941B
:10537000D2036419750986099709D801D6962D912B
:105380003D914D915C91D9972617370748075907EA
:1053900010F6C5010E945D0CF80184819581A681FB
:1053A000B7810196A11DB11D84839583A683B78320
:1053B0000E94D203F801FE966083718382839383F7
:1053C0008A94892809F069C180E591E00E945C0215
:1053D0000091CD031091CE03B801625F7F4FCE01E3
:1053E00001960E946B1344E050E0BE016D5F7F4F59
:1053F0008FE090E00E946D07B8016A5E7F4FCE019A
:1054000001960E946B1344E050E0BE016D5F7F4F38
:1054100081E090E00E946D07B8016E5E7F4FCE0183
:1054200001960E946B1344E050E0BE016D5F7F4F18
:1054300085E090E00E946D07B801625E7F4FCE016B
:1054400001960E946B138B819C81AD81BE818093FC
:10545000280590932905A0932A05B0932B050E9457
:105460007A037F7380912101909122016827792727
:10547000709322016093210168EE73E080E090E078
:105480000E949F038BEC91E09A8389831B821C828C
:105490001D821E8280E591E00E945C0244E050E0A3
:1054A000BE016D5F7F4F8FE090E00E948D0B0E94E8
:1054B000E10A88EA92E00E9425056B818FE594E07D
:1054C0000E94860A6EE28FE594E00E9431046C81AE
:1054D0008FE594E00E94860A6EE28FE594E00E94D8
:1054E00031046D818FE594E00E94860A6EE28FE5BB
:1054F00094E00E9431046E818FE594E00E94860A58
:105500006DEC71E08FE594E00E941B0A80E091E071
:105510009093AF068093AE060E94D203DC01CB01CC
:1055200088589341A109B1098093B6069093B706B4
:10553000A093B806B093B9068093B2069093B306D1
:10554000A093B406B093B5068093BA069093BB06B9
:10555000A093BC06B093BD060E94E10A88EE91E0DC
:105560000E942A0AE091AC06F091AD0688E592E02F
:105570009187808780E590E0938782878091AC0651
:105580009091AD060E9489091092C4061092C3063C
:105590000E94D2034B015C018091C3069091C40626
:1055A000019709F457C10E94D203681979098A0941
:1055B0009B09603576448105910508F04BC18CEA62
:1055C00096E00E94C81AE8CF87E380935E0480E8E3
:1055D0000E941D080E94150D882329F188E00E9471
:1055E0001D080E94020D8830F1F480E10E941D0820
:1055F0000E94020D182F8031B1F480E00E941D0836
:105600000E94020D81110FC041E050E0BE016F5FAA
:105610007F4F89E390E00E948D0B8981843019F4DB
:105620001093CB03E5CD83E380935E0480E80E9472
:105630001D080E94150D882371F180E10E941D084C
:105640000E94020D803139F582E10E941D080E94FE
:10565000020D823101F580E00E941D080E94020DBA
:10566000811119C084E08093CB0315E51FA741E0A9
:1056700050E0BE01615D7F4F8BE190E00E946D07BD
:105680001EA741E050E0BE01625D7F4F8AE190E0DD
:105690000E946D07ADCD10925E040E94E10A8CEA73
:1056A00092E00E942A0A60E177E280E090E00E94A6
:1056B0009F03F0E0E0E00995FFCF843001F5F801A9
:1056C00084819581A681B7810196A11DB11D848336
:1056D0009583A683B7830E94D2036419750986094E
:1056E0009709A70196010E949B34A90163E0C801B4
:1056F0000E946E17E2E0A8A9B9A9EC9334CE8130DC
:1057000069F5D801DA964D915D916D917C91DD97A7
:105710009E012F5F3F4FC8010E940419382EB2E04E
:105720008B1391C089819A81AB81BC81F8018483FC
:105730009583A683B7830E94D203641975098609ED
:105740009709A70196010E949B34A90163E0C80153
:105750000E946E17A8A9B9A93C9205CE823009F023
:1057600002CEF80142AD53AD64AD75AD9E012F5F21
:105770003F4FC8010E940419382EF5E08F135CC01A
:10578000A8A9B9A92C92F80182A193A1A4A1B5A1BD
:10579000892B8A2B8B2B41F484E893E0A0E0B0E0C6
:1057A00082A393A3A4A3B5A3F80186A197A1A0A562
:1057B000B1A5892B8A2B8B2B61F482A193A1A4A183
:1057C000B5A1B695A7959795879586A397A3A0A70A
:1057D000B1A7F80182A593A5A4A5B5A5892B8A2B0D
:1057E0008B2BA9F482A193A1A4A1B5A1AC01BD0109
:1057F00023E076956795579547952A95D1F7841BB1
:10580000950BA60BB70B82A793A7A4A7B5A7F80182
:1058100086A197A1A0A5B1A586A797A7A0ABB1AB7C
:1058200082A593A5A4A5B5A582AB93ABA4ABB5AB5C
:1058300088248394912C97CDF6E08F1304C0A8A9F7
:10584000B9A91C9290CDBFEF3B128DCDE8A9F9A963
:10585000108289CD8091C3069091C406019709F00A
:105860008DCECC24CA9423E0D22E22242394312C32
:105870008FE00E946503B601681B790B76956795EA
:105880007695679583E00E94080364E670E080E007
:1058900090E00E949F0360E082E00E94E20919A666
:1058A00018A61BA61AA61DA61CA670E060E0CE01D5
:1058B00088960E94A41828A539A58111B4C1211584
:1058C000310519F0C9010E940F2F19A618A61DA6AF
:1058D0001CA61BA61AA60E9427091BA21AA21DA27B
:1058E0001CA21FA21EA28E010F5F1F4F22E044E0E8
:1058F0000E94552E7C01009709F4A4C1FC0101907F
:105900000020E9F731978F01081B190BB801CE0170
:1059100082960E94A4182AA13BA181118CC1211555
:10592000310519F0C9010E940F2F1BA21AA21FA254
:105930001EA21DA21CA288A599A5009709F48AC1E0
:105940006AA17BA16115710509F482C14AA55BA515
:105950002EA13FA14217530708F47AC10E94433693
:105960008EA19FA19DA78CA71FA21EA28AA19BA169
:10597000009711F00E940F2F4CA55DA568A579A591
:105980008EE395E00E9438040E9453098C019093A5
:1059900038048093370461E082E00E94E209A801A4
:1059A00070E060E02AE08EE395E00E943A0A0E94EF
:1059B000270920E030E04CE052E40E943E35181602
:1059C00014F5809135048823F1F01092350460E0DD
:1059D00085E00E949E0260E087E00E94E20962E0AA
:1059E00072E08EE395E00E94F30A84E692E00E9462
:1059F000492181E892E00E94492170E060E082E064
:105A000090E00E94AE218091370490913804803D4F
:105A1000974008F58091360481111DC00E944B0902
:105A200061E087E00E94E20964EE71E08EE395E0B8
:105A30000E94F30A81E08093360461E070E084E024
:105A400090E00E94AE218AE992E00E9449218AEB0F
:105A500092E00E9449218091370490913804883B5C
:105A60009B4001F5809136048823E1F00E944309B0
:105A700061E087E00E94E2096EEE71E08EE395E05E
:105A80000E94F30A1092360470E060E084E090E037
:105A90000E94AE2187ED92E00E9449218EEE92E0B5
:105AA0000E9449210E94D20368AB79AB8AAB9BABC1
:105AB0008AE4E82E85E0F82E8701D80155961C92DD
:105AC0001E92549714968D919C911597892B29F4C9
:105AD00016968D919C91892BC9F1F80140805180D7
